:100000000A128A11EC2FFF1B0D2883137F18831708
:100010000008840A0319FF0A080000308A00040857
:10002000840A820700340D340A343D343D343D34B3
:100030003D343D343D343D343D343D343D343D3438
:100040003D343D343D343D343D343D343D343D3428
:100050003D343D343D343D343D343D343D343D3418
:100060003D343D343D340D340A3400340D340A340B
:100070003D343D343D343D343D343D343D343D34F8
:100080003D343D343D343D343D343D343D343D34E8
:100090003D343D343D343D343D343D343D343D34D8
:1000A0003D343D343D343D343D343D3400340D3435
:1000B0000A34203420345034493443343134363413
:1000C00046343834383437342034543443343734B5
:1000D000323420344D344F344E34493454344F3458
:1000E00052342034203400344E346834693465345A
:1000F0007434203464346F343A3420342534643416
:0A010000203443340D340A34003477
:10087200080064008001840A040603190034040697
:100882003B2C83160313871107168712940121301C
:100892008312031394000800F000700883120313FC
:1008A200930083160313141C572C582C522C8312BA
:1008B200031313080800F71B5F2C602C612C6C2CAF
:1008C2007609F8007709F900F80A0319F90A780895
:1008D200F6007908F7000800831603130713871739
:1008E20018158316031787111930831603139900FD
:1008F200181283120313981783160313981608000D
:10090200831603130F088F3960388F00831603177D
:10091200880189018316031385018312031385015C
:1009220083160313851083120313851008008312A4
:10093200031385140330F100F10B9D2C02300A12CF
:100942008A114D240A128A1100300A128A114D248A
:100952000A128A11F2000330F100F10BAE2C83125D
:100962000313851072080800333083120313B60094
:100972003108B7000030B800B901BA01C001C101A5
:100982003730AD000030AE003208AF003630B00074
:100992000A128A11FD240A128A11831203133908DA
:1009A2003107B500350884008313800108008312E3
:1009B200031385141030F100F10BDD2C00008030A0
:1009C2000A128A114D240A128A1100300A128A115F
:1009D2004D240A128A111030F100F10BEE2C0000A6
:1009E200831203138510C330F200CD30F100F10BF6
:1009F200F82CF20BF82C0800831203132F08FD00C9
:100A0200112D831203132D08A0002E08A1007D30A2
:100A1200A2003008A3000A128A1106270A128A11BC
:100A22007D0884000A128A110D200A128A11003AE6
:100A3200031D1C2D1D2D022D83120313AD01AE01CA
:100A42000800392D83160313981C282D292D232DD8
:100A5200710883120313FF00700884000A128A11BE
:100A620003200A128A1199000130F0070318F10AD3
:100A7200710883120313FF00700884000A128A119E
:100A820003200A128A11003A031D482D492D232DF5
:100A92000800F501F31F4E2D4F2D562DF209F309D3
:100AA200F20A0319F30A0130F500F11F592D5A2DEC
:100AB2005F2DF009F109F00A0319F10A70087104B7
:100AC2000319642D652D922D0130F400712D013032
:100AD2000310F00DF10DFF3E031D692D0130F407E7
:100AE200F11F742D752D682D71087302031D7B2D66
:100AF20070087202031C7E2D7F2D852D7008F20274
:100B02007108031CF303F30201300310F10CF00C23
:100B1200FF3E031D862D0130F402031D912D922DFF
:100B2200752D75080319962D972D9C2DF209F30941
:100B3200F20A0319F30A7308F1007208F0000800C0
:100B4200F501F11FA52DA62DAD2DF009F109F00A31
:100B52000319F10A0130F500F31FB02DB12DB82DA4
:100B6200F209F309F20A0319F30A0130F506F60154
:100B7200F701700871040319BF2DC02DF52D013046
:100B8200F400CC2D01300310F00DF10DFF3E031DDA
:100B9200C42D0130F407F11FCF2DD02DC32D01300C
:100BA2000310F60DF70DFF3E031DD12D71087302E0
:100BB200031DDD2D70087202031CE02DE12DE82DCE
:100BC2007008F2027108031CF303F3027614013079
:100BD2000310F10CF00CFF3E031DE92D0130F4026D
:100BE200031DF42DF52DD02D75080319F92DFA2DBD
:100BF200FF2DF609F709F60A0319F70A7708F1003B
:100C02007608F00008000A128A1181240A128A1159
:100C12000030F3000030F2002530F1008030F000A7
:100C22000A128A116D240A128A110A128A114224A6
:100C32000A128A112430F0008030F1000A128A115F
:100C420022250A128A114530F0008030F1000A1282
:100C52008A1122250A128A110130F0008030F10037
:100C62000A128A1122250A128A110A128A11D8241A
:100C72000A128A110A128A1198240A128A118312FC
:100C82000313E5004530B1006230B2006508B300DD
:100C9200B401B31BB4030A128A11B5240A128A11D1
:100CA2004530F0000030F1000A128A1122250A12A2
:100CB2008A11063083120313C4001330C300AD300F
:100CC200C200C20B622EC30B622EC40B622E3B2EDD
:100CD2000A128A110028720873040319712E722EE7
:100CE200782E72087304031D772E782E7F2E7008DB
:100CF2000A128A1139240A128A11052F7208093E32
:100D0200F40073080318013E003EF50074088400E5
:100D12008317751C83130008F600840A0008F70085
:100D2200760877040319962E972EC92E7208093E6B
:100D3200F40073080318013E003EF50074088400B5
:100D42008317751C83130008F600840A0008F70055
:100D52007208023EF80073080318013E003EF900D3
:100D6200780884008317791C83130008FA00840A28
:100D72000008FB007B08803AFC007708803A7C027E
:100D8200031DC52E76087A020318C82EC92E052F18
:100D9200720884008317731C83130008F400840A0A
:100DA2000008F5007208023EF60073080318013EBF
:100DB200003EF700760884008317771C831300082F
:100DC2007407F9007508F8000318F80A801FEA2E64
:100DD200F8037808FA007908840083177A1C8313D1
:100DE200700880007208023EF40073080318013E86
:100DF200003EF500740884008317751C83130130CC
:100E02008007840A0318800A080083120313220849
:100E12008400000884000A128A110D200A128A1125
:100E2200253A031D152F162FD22F220884000130D8
:100E32008007E601E7010030EA00FF30E800FF30FA
:100E4200E900220884000008A700270884000A128B
:100E52008A110D200A128A11643A0319312F322F96
:100E62003E2F270884000A128A110D200A128A11C5
:100E7200693A031D3D2F3E2FCB2F23088400831395
:100E82000008FF00023080077F0884000008A800E5
:100E9200840A0008A900220884002708013E800075
:100EA2002030AC00A91B562F582F0130592F00308B
:100EB200A6000130AC022C08A03E84000A30F000EB
:100EC2000030F1002908F3002808F2000A128A1102
:100ED2004A250A128A117108F7007008F6000A12F0
:100EE2008A115C240A128A117608303E831380002C
:100EF2000A30F0000030F100831203132908F300D6
:100F02002808F2000A128A11A1250A128A11710810
:100F120083120313A9007008A800280829040319E2
:100F2200932F942F992F2C08031D982F992F5A2F06
:100F32002C0803199D2F9E2FC42F26080319A22FB8
:100F4200A32FC42F0130AC022C08A03E84002D3008
:100F520083138000C42F2C08A03E84008313000852
:100F6200A400A5012408F0002508F1002008F200E1
:100F72002108F3000A128A116C260A128A11013022
:100F820083120313AC0720302C06031DC92FCA2F6E
:100F9200AC2FEB2F83120313220884000130800749
:100FA200EB2F22088400000884000A128A110D2007
:100FB2000A128A11A400A5012408F0002508F100F4
:100FC2002008F2002108F3000A128A116C260A1284
:100FD2008A11CB2F080083120313E601E701E8010F
:100FE200E901EA018313A0308400C0300A128A1199
:0E0FF2003A240A128A1183010A128A11042E6F
:02400E00E42F9D
:00000001FF
