:100000000A128A11FC2F00308A000408840A820731
:1000100000344D344534433448344134543452343C
:100020004F344E3449344334003453344F34523413
:0E0030005234593420343A3428342834003401
:100DEE00831203138C1DFC2EFD2EF72E8C11080082
:100DFE008316031311140A128A11F7260A128A1186
:100E0E0008008316031311150A128A11F7260A1207
:100E1E008A110800F00070088312031393000A125F
:100E2E008A11F7260A128A110800831603138715F2
:100E3E000716283083120313940080308316031391
:100E4E009400093093000800F101F10A00300A12F3
:100E5E008A117A270A128A110730F6007D30F500C2
:100E6E00F50B372FF60B372F08004D2F7508840022
:100E7E000A128A1103200A128A11F10040300A1256
:100E8E008A117A270A128A110130F5077508840033
:100E9E000A128A1103200A128A11003A031D582FD2
:100EAE00592F3D2F0800F600760303195F2F602F90
:100EBE00682F7508BF3EF700003003180130F800A8
:100ECE006F2F75087F3EF700003003180130F800D1
:100EDE007708F9007908F10000300A128A117A2792
:100EEE000A128A110800F4000A128A11FF260A1249
:100EFE008A117C300A128A1111270A128A1174087B
:100F0E000A128A1111270A128A1171080A128A11FD
:100F1E0011270A128A110A128A1108270A128A1137
:100F2E000330F3009730F200F20B9B2FF30B9B2F45
:100F3E00A02F08004130F800EE30F700F70BA52F78
:100F4E00F80BA52F00003830F10000300A128A117C
:100F5E007A270A128A110C30F10000300A128A1117
:100F6E007A270A128A110630F10000300A128A110D
:100F7E007A270A128A110A128A112B270A128A114B
:100F8E0008006130831603138F0083160317880140
:100F9E0089010A128A111C270A128A110A128A1151
:100FAE00A1270A128A110630F50001300A128A11A1
:100FBE005A270A128A110D30F5000A128A113C279F
:100FCE000A128A110330F50002300A128A115A27CA
:100FDE000A128A110130F5000A128A113C270A12F0
:100FEE008A11F82F0A128A11002883010A128A1117
:020FFE00C82FFA
:02400E00E423A9
:00000001FF
